:100000000C9434000C9451000C9451000C94510049
:100010000C9451000C9451000C9451000C9451001C
:100020000C9451000C9451000C9410070C94510046
:100030000C9451000C9451000C9451000C945100FC
:100040000C9451000C9451000C9451000C945100EC
:100050000C945100320596052F0636063D064406DF
:100060004E06E5055606EF0611241FBECFE5D8E083
:10007000DEBFCDBF12E0A0E6B0E0ECE0F5E102C0EB
:1000800005900D92AA3DB107D9F722E0AAEDB2E0A2
:1000900001C01D92AD3DB207E1F70E949B010C9497
:1000A000840A0C94000041E060E084E40E94270789
:1000B00041E061E084E40E94270741E062E084E4DB
:1000C0000E94270741E063E084E40E94270740E0A4
:1000D00064E084E40E94270740E065E084E40E9435
:1000E000270740E066E084E40E94270740E067E0DD
:1000F00084E40E94270741E064E084E40E947708DA
:1001000041E065E084E40E94770841E066E084E431
:100110000E94770841E067E084E40E947708089530
:10012000FF920F931F93CF93DF93CDB7DEB7609706
:100130000FB6F894DEBF0FBECDBF80E1E0E6F0E081
:10014000DE01119601900D928A95E1F7FF24FA9451
:1001500000E03CC041E060E084E40E94970741E099
:1001600061E084E40E94970741E062E084E40E9439
:10017000970741E063E084E40E9497078FE39CE9DE
:100180000197F1F700C0000040E0602F84E40E9476
:10019000970710E018C064E0610F84E40E9407082C
:1001A000811110C0E02FF0E0EE0FFF1FEE0FFF1FD8
:1001B00081E090E08C0F9D1FE80FF91FE10FF11D0A
:1001C000F08003C01F5F143030F30F5F043010F273
:1001D0008F2D60960FB6F894DEBF0FBECDBFDF91B6
:1001E000CF911F910F91FF90089541E060E082E46C
:1001F0000E9497078FE99FE00197F1F700C0000088
:1002000040E060E082E40E9497078FE99FE0019759
:10021000F1F700C000000895682F81E40E9464088F
:1002200040E061E082E40E9497070E94F500089593
:1002300041E060E081E40E94270741E061E081E461
:100240000E94270741E062E081E40E94270741E025
:1002500063E081E40E94270741E064E081E40E94BA
:10026000270741E065E081E40E94270741E066E05E
:1002700081E40E94270741E067E081E40E942707AC
:1002800041E060E082E40E94270741E062E082E40E
:100290000E94270741E061E082E40E94270740E0D6
:1002A00062E082E40E94970788E30E940C0181E0EB
:1002B0000E940C018EE00E940C018FE19EE40197E8
:1002C000F1F700C000000895682F81E40E946408DF
:1002D00041E061E082E40E9497070E94F5000895E2
:1002E000CF93DF93EC0103C00E94640121968881C3
:1002F0008111FACFDF91CF91089581E00E940C0126
:100300000895813019F48FE7860F06C0823019F402
:100310008FEB860F01C080E80E940C01089541E038
:100320000E942707089541E00E949707089540E042
:100330000E9497070895CF93DF93CDB7DEB7289734
:100340000FB6F894DEBF0FBECDBF60E083E40E941D
:100350008F0161E083E40E948F0162E083E40E94E8
:100360008F010E9418010E9453000E94630980E7D8
:1003700090E00E94700161E082E00E9481018AE7C2
:1003800090E00E9470012FEF3BE48DE1215030405E
:100390008040E1F700C000000E947D0163E081E041
:1003A0000E94810182E890E00E94700165E082E095
:1003B0000E9481018EE890E00E9470019FEF2EE97B
:1003C00034E2915020403040E1F700C000000E942C
:1003D0007D0166E081E00E94810185E990E00E9454
:1003E000700164E082E00E94810189E990E00E944E
:1003F00070018FEF9BE42DE1815090402040E1F7A8
:1004000000C000000E947D0165E081E00E94810142
:1004100082EA90E00E94700166E082E00E94810121
:1004200089EA90E00E9470013FEF8EE994E231503A
:1004300080409040E1F700C000000E947D0165E02F
:1004400081E00E9481018FEA90E00E94700165E0E6
:1004500082E00E94810186EB90E00E9470012FEF04
:100460003EE984E2215030408040E1F700C00000C6
:100470000E947D0164E081E00E9481018EEB90E0AA
:100480000E94700166E082E00E94810188EC90E0A9
:100490000E9470019FEF2EE934E2915020403040DD
:1004A000E1F700C000000E947D0180E091E00E9421
:1004B0000809813039F481E091E00E940809813017
:1004C00009F4D5C08FEC90E00E94700161E082E0F9
:1004D0000E94810189ED90E00E9470018FEF99E602
:1004E00028E1815090402040E1F700C000000E94C8
:1004F0007D0184EE90E00E94700161E082E00E9444
:10050000810183EF90E00E9470018FEF89838A83DD
:100510008B838C8310E02AC00E94900001C08FEF73
:100520008F3FD1F3E1E0F0E0EC0FFD1FE10FF11D93
:1005300080830E9464013FEF82E597E03150804064
:100540009040E1F700C000006CE0610F82E00E9483
:10055000810186E20E9464012FEF30E782E02150A2
:1005600030408040E1F700C000001F5F1430B8F257
:1005700044E050E0BE016F5F7F4F82E091E00E9457
:100580003C0961E080E091E00E942A090E947D011F
:100590008FEF90E00E9470019FEF24E33CE09150C8
:1005A00020403040E1F700C000000E947D018DE056
:1005B00091E00E94700161E082E00E9481018EE181
:1005C00091E00E94700110E02AC00E94900001C0DA
:1005D0008FEF8F3FD1F3E1E0F0E0EC0FFD1FE10F73
:1005E000F11D80830E9464018FEF92E527E0815026
:1005F00090402040E1F700C000006CE0610F82E015
:100600000E94810186E20E9464013FEF80E792E050
:10061000315080409040E1F700C000001F5F14306F
:10062000B8F244E050E0BE016F5F7F4F86E091E09A
:100630000E943C0961E081E091E00E942A090E9449
:100640007D018FEF90E00E9470012FEF34E38CE08A
:10065000215030408040E1F700C000000E947D0141
:1006600060E08AE091E00E942A09F12C05C08AE04E
:1006700091E00E940809F82E00E08091DA028130B2
:1006800001F50E9485091092DC021092DB021092A3
:10069000DA0261E083E40E94970160E083E40E9453
:1006A00097010E947D018AE291E00E9470019FEF14
:1006B00029E638E1915020403040E1F700C00000C9
:1006C00000E0E12C1FEFBCC181E0F81227C00E94BE
:1006D0007D018AE391E00E94700161E082E00E9466
:1006E000810188E491E00E94700162E083E40E944D
:1006F00093019AEA26EE36E981E09150204030409D
:100700008040D9F7000062E083E40E94970160E036
:100710008AE091E00E942A09E12CF12C0E947D01DF
:1007200088E591E00E94700161E082E00E94810111
:1007300086E691E00E94700103C00E949000182F8D
:100740001F3FD9F380ED810F823088F00E947D0138
:1007500086E791E00E9470019FEF29E638E1915011
:1007600020403040E1F700C000001FEF69C18FEF6B
:100770008D838E838F83888789838A838B838C8301
:10078000103309F4ABC0113309F455C159C10E94AB
:100790007D0183E891E00E94700161E082E00E94A7
:1007A00081018EE891E00E9470018FEF91EE24E0CC
:1007B000815090402040E1F700C0000010E02AC0C6
:1007C0000E94900001C08FEF8F3FD1F3E5E0F0E091
:1007D000EC0FFD1FE10FF11D80830E9464013FEFCC
:1007E00082E597E0315080409040E1F700C0000082
:1007F0006CE0610F82E00E94810186E20E94640148
:100800002FEF30E782E0215030408040E1F700C018
:1008100000001F5F1430B8F244E050E0BE016F5F8B
:100820007F4F82E091E00E94110944E0BE016F5FBA
:100830007F4FCE0105960E948F09813011F50E94ED
:100840007D018AE991E00E94700161E082E00E94EE
:10085000810183E891E00E9470019FEF24E33CE076
:10086000915020403040E1F700C0000060E083E498
:100870000E9493010E946F090E947D01E12C81E09A
:100880002BC0E3940E947D0185EA91E00E947001F3
:1008900061E082E00E94810180EB91E00E947001A2
:1008A00083E38E190E9464018FEF99E628E181505D
:1008B00090402040E1F700C000000E947D0132E03E
:1008C0003E1548F461E08AE091E00E942A091FEF9A
:1008D000FF24F394B5C0802F1FEF01C0802F81301B
:1008E00009F055CF082FACC00E947D018CEB91E040
:1008F0000E94700161E082E00E94810187EC91E03A
:100900000E9470018FEF91EE24E0815090402040D2
:10091000E1F700C0000010E02AC00E94900001C072
:100920008FEF8F3FD1F3E5E0F0E0EC0FFD1FE10F1B
:10093000F11D80830E9464013FEF82E597E0315012
:1009400080409040E1F700C000006CE0610F82E061
:100950000E94810186E20E9464012FEF30E782E06D
:10096000215030408040E1F700C000001F5F14308C
:10097000B8F244E050E0BE016F5F7F4F86E091E047
:100980000E94110944E0BE016F5F7F4FCE010596C2
:100990000E948F09813011F50E947D018AE991E062
:1009A0000E94700161E082E00E9481018CEB91E085
:1009B0000E9470019FEF24E33CE0915020403040C2
:1009C000E1F700C0000061E083E40E9493010E940F
:1009D0006F090E947D01E12C82E02BC0E3940E940C
:1009E0007D0183ED91E00E94700161E082E00E9450
:1009F000810180EB91E00E94700183E38E190E94D7
:100A000064018FEF99E628E1815090402040E1F7A2
:100A100000C000000E947D0132E03E1548F461E014
:100A20008AE091E00E942A091FEFFF24F39408C096
:100A3000802F1FEF01C0802F823009F055CF082F83
:100A4000002309F441CEEE24E394E4C18E2D90E01E
:100A5000FC013197EA30F10508F0DCC1E65DFF4F9B
:100A60000C947E0A0E947D018EED91E00E9470013F
:100A700061E082E00E948101013029F48CEE91E076
:100A80000E94700106C0023021F48CEF91E00E94B8
:100A90007001802F0E94A509182F8FEF90E722E0A8
:100AA000815090402040E1F700C000001133F1F088
:100AB000123309F1133319F1143311F4023021F117
:100AC000143311F4013029F11F3F31F10E947D01EF
:100AD0008AE092E00E9470013FEF84E39CE0315095
:100AE00080409040E1F700C0000016C00F2EF3E0F8
:100AF000EF2EF02D11C06894EE24E2F80DC00F2EF9
:100B0000F5E0EF2EF02D08C00F2EF6E0EF2EF02DC1
:100B100003C06894EE24E1F81153143008F47AC14C
:100B20008091DA02882309F49DCF74C10E947D016F
:100B300086E192E00E94700161E082E00E94810102
:100B400086E292E00E947001802F0E94A509182F72
:100B50002FEF30E782E0215030408040E1F700C0C5
:100B600000001133C1F01233D9F01333F1F0143314
:100B700001F11F3F01F10E947D018AE092E00E9495
:100B800070019FEF24E33CE0915020403040E1F7BA
:100B900000C0000010C00F2EF6E0EF2EF02D0BC0AD
:100BA0000F2EF7E0EF2EF02D06C06894EE24E3F848
:100BB00002C0EE24E3941153143008F42BC1809149
:100BC000DA02882309F4B2CF25C10E947D018AE3AD
:100BD00092E00E94700161E082E00E9481018DE458
:100BE00092E00E947001802F0E94A509182F8FEFBC
:100BF00090E722E0815090402040E1F700C00000E3
:100C00001133B1F01233C9F01033E1F01F3FE9F0B6
:100C10000E947D018AE092E00E9470013FEF84E330
:100C20009CE0315080409040E1F700C000000DC0D2
:100C30000F2EFAE0EF2EF02D08C00F2EF9E0EF2E68
:100C4000F02D03C06894EE24E1F81053133008F43B
:100C5000E1C08091DA02882309F4B7CFDBC0602FAE
:100C600083E00E94C509EE24E394D4C0602F84E0A1
:100C70000E94C509EE24E394CDC0602F85E00E9458
:100C8000C509EE24E394C6C0602F86E00E94C50922
:100C9000023009F0B0C0EE24E394BCC0602F87E0BE
:100CA0000E94C5096894EE24E1F8B4C0602F89E081
:100CB0000E94C5096894EE24E3F8ACC00E947D014F
:100CC0008EE592E00E9470018FED0E94640183E442
:100CD0000E9464016BE081E00E9481012FEF31EE00
:100CE00084E0215030408040E1F700C00000802FB8
:100CF0000E94A5099FE72AE136E09150204030404C
:100D0000E1F700C000009091DA02913009F477C059
:100D100010ED180F1A3080F00E947D0182E792E0FA
:100D20000E9470018FEF94E32CE0815090402040AE
:100D3000E1F700C0000054C00E946401802F0E94AF
:100D4000A5093FE79AE126E0315090402040E1F7C5
:100D500000C000009091DA02913009F454C00F2EC7
:100D6000F0EDDF2EF02DD80E39E03D1580F40E9415
:100D70007D018AE092E00E9470018FEF94E32CE005
:100D8000815090402040E1F700C0000029C00E943F
:100D90006401110FE12EEE0CEE0C1E0DE12EED0C98
:100DA00080E40E946A093FEF81EE94E03150804078
:100DB0009040E1F700C000008E2D0E946A090E9459
:100DC0007D018AE792E00E9470012FEF34E38CE00E
:100DD000215030408040E1F700C0000001C0E12C0C
:100DE000E11015C08091DA02882309F467CF689476
:100DF000EE24E3F80FC06894EE24E1F80BC0689489
:100E0000EE24E3F807C06894EE24E3F803C0689486
:100E1000EE24E3F88091DA02813009F017CE2DCC70
:100E20001F920F920FB60F9211248F939F93809170
:100E3000DB029091DC0201969093DC028093DB024E
:100E40009F918F910F900FBE0F901F901895823435
:100E500019F118F4813439F008958334B1F18434F0
:100E600009F44CC00895413059F42AB381E090E070
:100E700002C0880F991F6A95E2F7822B8ABB0895FA
:100E80002AB381E090E002C0880F991F6A95E2F7CB
:100E9000809582238ABB0895413059F427B381E0BD
:100EA00090E002C0880F991F6A95E2F7822B87BBFA
:100EB000089527B381E090E002C0880F991F6A95DA
:100EC000E2F78095822387BB0895413059F424B31B
:100ED00081E090E002C0880F991F6A95E2F7822BAB
:100EE00084BB089524B381E090E002C0880F991F6D
:100EF0006A95E2F78095822384BB0895413059F4C6
:100F000021B381E090E002C0880F991F6A95E2F753
:100F1000822B81BB089521B381E090E002C0880F4D
:100F2000991F6A95E2F78095822381BB08958234E8
:100F300019F118F4813439F008958334B1F184340F
:100F400009F44CC00895413059F42BB381E090E08E
:100F500002C0880F991F6A95E2F7822B8BBB089518
:100F60002BB381E090E002C0880F991F6A95E2F7E9
:100F7000809582238BBB0895413059F428B381E0DA
:100F800090E002C0880F991F6A95E2F7822B88BB18
:100F9000089528B381E090E002C0880F991F6A95F8
:100FA000E2F78095822388BB0895413059F425B338
:100FB00081E090E002C0880F991F6A95E2F7822BCA
:100FC00085BB089525B381E090E002C0880F991F8A
:100FD0006A95E2F78095822385BB0895413059F4E4
:100FE00022B381E090E002C0880F991F6A95E2F772
:100FF000822B82BB089522B381E090E002C0880F6B
:10100000991F6A95E2F78095822382BB0895823406
:10101000E9F018F4813431F055C0833459F1843447
:10102000E9F150C049B381E090E09C01062E02C076
:10103000220F331F0A94E2F7842F90E08223932338
:1010400002C0959587956A95E2F7089546B381E0C9
:1010500090E09C01062E02C0220F331F0A94E2F793
:10106000842F90E08223932302C0959587956A95FB
:10107000E2F7089543B381E090E09C01062E02C0A0
:10108000220F331F0A94E2F7842F90E082239323E8
:1010900002C0959587956A95E2F7089540B381E07F
:1010A00090E09C01062E02C0220F331F0A94E2F743
:1010B000842F90E08223932302C0959587956A95AB
:1010C000E2F7089580E00895823459F018F48134ED
:1010D00031F00895833439F0843439F008956BBBCE
:1010E000089568BB089565BB089562BB0895823476
:1010F00061F118F4813441F00895833409F446C055
:10110000843409F464C00895413099F480B78B7F2A
:1011100080BF2AB381E090E002C0880F991F6A95D2
:10112000E2F7982F909592239ABB9BB3892B8BBBA8
:1011300008952BB381E090E002C0880F991F6A9553
:10114000E2F7809582238BBB0895413099F480B7F4
:101150008B7F80BF27B381E090E002C0880F991F8A
:101160006A95E2F7982F9095922397BB98B3892BB5
:1011700088BB089528B381E090E002C0880F991FD2
:101180006A95E2F78095822388BB0895413099F4EF
:1011900080B78B7F80BF24B381E090E002C0880FCE
:1011A000991F6A95E2F7982F9095922394BB95B377
:1011B000892B85BB089525B381E090E002C0880F9C
:1011C000991F6A95E2F78095822385BB0895413087
:1011D00099F480B78B7F80BF21B381E090E002C09B
:1011E000880F991F6A95E2F7982F9095922391BBEB
:1011F00092B3892B82BB089522B381E090E002C0B4
:10120000880F991F6A95E2F78095822382BB089523
:10121000E199FECF9FBB8EBB8CB381608CBB8DB33D
:101220000895DC01E199FECF20E030E00FC0F90124
:10123000EA0FFB1FFFBBEEBB9CB391609CBBFB01A5
:10124000E20FF31F9DB390832F5F3F4F24173507A5
:1012500070F30895E199FECF9FBB8EBB8CB3816084
:101260008CBB8DB3861739F06DBB8CB384608CBB9F
:101270008CB382608CBB0895CF93DF93DC01EA01CD
:1012800020E030E01AC0E199FECFC9018A0F9B1F10
:101290009FBB8EBB9CB391609CBB5DB3FB01E20F17
:1012A000F31F9081591739F09DBB9CB394609CBB90
:1012B0009CB392609CBB2F5F3F4F2C173D0718F3E8
:1012C000DF91CF91089587B3806B87BB8DB1816526
:1012D0008DB908958FB9779BFECF8FB108958EE4B5
:1012E0008CBF83B7886083BF83B78F7B83BF83B78F
:1012F000816083BF83B78D7F83BF83B7846083BFE3
:10130000789489B7826089BF089583B78E7F83BF41
:1013100083B78D7F83BF83B78B7F83BF0895DC0145
:1013200090E00DC0292F30E0FD01E20FF31F508146
:10133000FB01E20FF31F2081521305C09F5F94173A
:1013400088F381E0089580E00895CF93C82F8FEF50
:1013500018C02091DB023091DC02283B3B4010F0AA
:10136000C13049F02091DB023091DC02203D374052
:1013700030F0C23021F491E09093DA0204C00E9470
:1013800090008F3F31F3CF910895EF92FF920F932A
:101390001F93CF93DF93D82FF62EE12C00E010E0BF
:1013A0000E947D01D53011F128F4D33049F0D430BA
:1013B00091F047C0D73081F120F1D930C1F141C05F
:1013C0008BE892E00E9470010F2EF1E3EF2EF02DDA
:1013D00001E211E136C084E992E00E9470010F2E13
:1013E000F2E3EF2EF02D02E212E12BC08DE992E044
:1013F0000E9470010F2EF3E3EF2EF02D03E213E1B4
:1014000020C086EA92E00E9470010F2EF4E3EF2ED6
:10141000F02D04E214E115C08FEA92E00E94700101
:101420000F2EF5E3EF2EF02D05E215E10AC085EB56
:1014300092E00E9470010F2EF6E3EF2EF02D06E2EF
:1014400016E1812F0E946A092FEF80E792E0215078
:1014500080409040E1F700C000008FEF0E946A09D1
:10146000813029F482EC92E00E94700104C085EC86
:1014700092E00E94700161E082E00E94810189ECAB
:1014800092E00E9470018F2D0E94A509C82F2FEFB6
:1014900080E792E0215080409040E1F700C00000DA
:1014A000C13321F4802F0E946A0919C0C23321F48C
:1014B0008E2D0E946A0913C0CF3F89F0C03379F0A6
:1014C0000E947D018AE092E00E9470012FEF84E388
:1014D0009CE0215080409040E1F700C00000C053E4
:1014E000C33028F08091DA02882309F459CFDF91C4
:1014F000CF911F910F91FF90EF900895EE0FFF1F76
:0C1500000590F491E02D0994F894FFCFC1
:10150C003738392F3435362A3132332D41303D2B93
:10151C004865792067757973210057656C636F6D29
:10152C00650057686F205765204172653F00544530
:10153C00414D203300416D7200416264756C6C61E9
:10154C006800204661746D61002053616A6100205F
:10155C0041686D6564004D6F737461666100204570
:10156C006C6B616D617368004D617277616E004CDC
:10157C006F67696E20666F7200666972737420748F
:10158C00696D65005365742041646D696E207061EE
:10159C0073730041646D696E20706173733A00500F
:1015AC0061737320497320536176656400456E74D2
:1015BC0065722047756573742050617373004775AD
:1015CC0065737420506173733A0053657373696F5C
:1015DC006E2054696D656F7574004C6F67696E2071
:1015EC00626C6F636B6564007761697420323020C4
:1015FC007365636F6E64730053656C656374206D03
:10160C006F6465203A00303A41444D494E20313ADE
:10161C0047554553540057726F6E6720696E70754D
:10162C00742E0041646D696E206D6F646500456EAB
:10163C0074657220506173733A0052696768742044
:10164C00706173730057726F6E6720506173730013
:10165C005472696573206C6566743A0047756573DE
:10166C0074206D6F646500456E74657220706173D3
:10167C00733A0057726F6E67207061737300313A62
:10168C00524D31202020323A524D3200333A524DD5
:10169C0033202020343A4D6F72652000333A524D7E
:1016AC0033202020343A524D340057726F6E67202D
:1016BC00696E70757400313A524D34202020323AE4
:1016CC00545620202000333A41495220436F6E6417
:1016DC002E343A52455455524E00313A53657420CB
:1016EC0074656D70657261747572652000323A4371
:1016FC006F6E74726F6C2020303A524554005365F3
:10170C00742074656D70657261747572652E3A2003
:10171C00200057726F6E6720210054656D706572E2
:10172C0061747572652053656E7400526F6F6D3104
:10173C0020533A00526F6F6D3220533A00526F6F44
:10174C006D3320533A00526F6F6D3420533A00546E
:10175C005620533A0041697220436F6E642E205319
:10176C003A004F4E004F464600312D4F6E20322D21
:0A177C004F666620302D52455400E0
:00000001FF
